:100000000C943D000C94780C0C94A80C0C94820F6A
:100010000C94820F0C94460E0C94820F0C94820F59
:100020000C94820F0C94820F0C9457090C94820F3D
:100030000C94820F0C94820F0C94380A0C94820F4B
:100040000C94820F0C94820F0C94D6080C94820F9F
:100050000C94820F0C9425070C94820F0C94820F41
:100060000C94820F0C94820F0100053B80053B0528
:100070003D001F08053D0549800011241FBECFEF3C
:10008000D8E0DEBFCDBFE8E6F0E040E017C0B591B4
:10009000A59135912591059107FD0CC0959185910C
:1000A000EF01F92FE82F05900D92A217B307D9F7AA
:1000B000FE0104C01D92A217B307E1F7E937F40768
:0E00C00031F70E94AB010C946500F894FFCF5D
:1000CE000500000000000500005F000005000700AD
:1000DE00070005147F147F1405242A7F2A12052396
:1000EE0013086462053649562050050807030000C0
:1000FE0005001C224100050041221C000514083E8B
:10010E0008140508083E08080500B0700000050830
:10011E0008080808050060600000052010080402A9
:10012E00053E5149453E0500427F40000572494952
:10013E004946052141494D33051814127F100527F4
:10014E0045454539053C4A494931054121110907C3
:10015E0005364949493605464949291E0500001408
:10016E00000005004034000005081422410005146B
:10017E00141414140541221408000502015909062D
:10018E00053E415D594E057C1211127C057F494991
:10019E004936053E41414122057F4141413E057FA1
:1001AE0049494949057F09090909053E41415173EC
:1001BE00057F0808087F0500417F4100052040416A
:1001CE003F01057F08142241057F40404040057FD6
:1001DE00020C027F057F0408107F053E4141413E1F
:1001EE00057F09090906053E4151215E057F091962
:1001FE0029460526494949320501017F0101053F7E
:10020E004040403F051F2040201F053F4038403FE3
:10021E00056314081463050304780403056151494A
:10022E00454305007F4141000502040810200500EA
:10023E0041417F0005040201020405404040404058
:10024E0005070B000000052054547840057F284414
:10025E00443805384444442805384444287F05383A
:10026E00545454180500087E09020518A4A49C785D
:10027E00057F080404780500447D400005204040B9
:10028E003D00057F102844000500417F4000057C9D
:10029E0004780478057C080404780538444444380E
:1002AE0005FC182424180518242418FC057C0804C1
:1002BE0004080548545454240504043F4424053CC2
:1002CE004040207C051C2040201C053C4030403C1A
:1002DE00054428102844054C9090907C05446454A5
:1002EE004C4405000836410005000077000005006B
:1002FE004136080005040204080405007F417F0012
:10030E00257500250043004C414344204361720093
:10031E0072706D004469616D2E3A00536F6E61729A
:10032E003A00446973742E3A006B6D004400414CE0
:10033E0045525441204445004151554543494D4590
:07034E004E544F2121210054
:100356008EEF84B981E085B998EF97B990EB98B99B
:100366008AB98DE78BB992E094BD83E085BD29EF0C
:1003760027BD90936E0094E49093810090E2909351
:100386006F009AE0909369008DBB94E090936800AB
:1003960090E890936D0090EC90937C009FEE909384
:1003A6007A0010927B0098E390937E0093EA94BDC6
:1003B60085BD87E690E00E94140F78940E940E0B8C
:1003C60000E028E045E06EEC70E080E00E94B30DAE
:1003D6000E94BF0E60913B0570913C05769567952E
:1003E6007093300560932F0580E090E00E94CA0B61
:1003F60023EC35EF48EC50E40E947B0F20E030E51B
:1004060043EC57E40E94770F6B017C01609139053C
:1004160070913A0580E090E00E94CA0BA701960110
:100426000E947B0F20E030E040E752E40E947B0F01
:100436000E94D80C709334056093330540913505BE
:1004460050913605469F9001479F300D569F300DBF
:100456001124C90160E17EE00E94890E709338057F
:10046600609337058091230587BD60E070E080E0EA
:100476000E94320F90E090933C0580933B050E94CA
:100486006F0FCCE7D0E080EC888310924405109281
:10049600430587EA91E60197F1F700C0000082EC78
:1004A600888382E090E0909344058093430587EA31
:1004B60091E60197F1F700C0000060E088E70E942E
:1004C600290F61E173E080E00E94D40D60E089E6C7
:1004D6000E94290F609145057091460580E090E0E5
:1004E6000E94430C81EC888381E090E09093440560
:1004F6008093430587EA91E60197F1F700C0000073
:100506006FE088E70E94290F63E173E080E00E94B4
:10051600D40D6FE084E60E94290F60913F0570912B
:10052600400580E090E00E94430C63E070E080E0CC
:100536000E94320F90E090934805809347056091A2
:100546003F05709140058617970720F483E090E0F9
:100556000E94FA0E60E080E00E94290F65E173E0D8
:1005660080E00E94D40D6FE080E00E94290F609128
:10057600390570913A0580E090E00E94430C6FE0E7
:100586008EE10E94290F6EE173E080E00E94D40D97
:100596006CE180E00E94290F62E273E080E00E9435
:1005A600D40D6CE18DE20E94290F60913B0570919C
:1005B6003C0580E090E00E94430C69E280E00E94E6
:1005C600290F69E273E080E00E94D40D69E28DE2B2
:1005D6000E94290F609116017091170180911801F0
:1005E600909119010E94430C66E380E00E94290F56
:1005F60060E373E080E00E94D40D66E38DE20E9422
:10060600290F609135057091360580E090E00E94D3
:10061600430C66E381E40E94290F67E373E080E000
:100626000E94D40D69E688E70E94290F6AE373E009
:1006360080E00E94D40D16C00E946F0F64E183E231
:100646000E94290F6CE373E080E00E94D40D63E200
:1006560089E10E94290F66E473E080E00E94D40DD0
:100666000E94070D80913F059091400587399105BD
:1006760018F70E94070D85B1817085B985B1806C28
:1006860085B940913305509134059A01ADECBCEC27
:100696000E94CF0E96958795969587959695879500
:1006A6009C01220F331F880F991F880F991F880FEF
:1006B600991F820F931F9A01281B390BC901880FB6
:1006C600991F8E71992790932E0580932D0595B1CC
:1006D600892B85B989EF90E00197F1F700C00000FA
:1006E60085B1817085B985B1806A85B92091330558
:1006F600309134050E94CF0EAC015695479556951C
:100706004795569547959A010E94CF0E96958795DF
:1007160096958795969587959C01220F331F880F8E
:10072600991F880F991F880F991F820F931F9A018F
:10073600281B390BC901880F991F8E719927909331
:100746002C0580932B0595B1892B85B989EF90E00F
:100756000197F1F700C0000085B1817085B985B1B8
:10076600806685B9209133053091340536952795F5
:1007760036952795ABE7B4E10E94CF0EAC015695AE
:1007860047959A01ADECBCEC0E94CF0E96958795E5
:1007960096958795969587959C01220F331F880F0E
:1007A600991F880F991F880F991F820F931F9A010F
:1007B600281B390BC901880F991F8E7199279093B1
:1007C6002A058093290595B1892B85B989EF90E093
:0A07D6000197F1F700C00000FDCD0F
:1007E0002F923F924F926F927F928F929F92AF92F1
:1007F000BF92CF92DF92EF92FF920F931F93CF930E
:10080000DF93CDB7DEB762970FB6F894DEBF0FBEA9
:10081000CDBF6C013A01862E7901FC01108617824A
:10082000848181FFE7C19E012F5F3F4F3D872C8769
:10083000C901A0E8888B998BAA8B9FE3992EF301BD
:10084000849187FC8081882309F4D0C1482D9301CD
:100850002F5F3F4F4F4F853219F03901842E0AC068
:10086000F901849147FD808192E0690E711C811C21
:10087000853229F4B60190E00E94070CE0CFB12C3C
:1008800000E010E01032A0F48B3269F030F48032D6
:1008900059F0833269F410612CC08D3239F0803305
:1008A00039F4116026C01260146023C0186021C0A2
:1008B00017FD29C090ED980F9A3078F416FF06C006
:1008C000AAE0BA9E900D1124B92E13C0EAE00E9F43
:1008D000900D1124092F10620CC08E3221F416FDE8
:1008E00085C1106406C08C3611F4106802C08836C9
:1008F00051F4F301849187FC8081FFEF6F1A7F0A26
:100900008F0A8111BFCF982F9F7D9554933028F483
:1009100024E0E20EF11C99820FC0833631F0833758
:1009200091F0833509F063C027C0F7018081898386
:1009300097012E5F3F4F7901288839884A88AA2479
:10094000A394B12C17C0A7014D5F5F4F5F874E87FF
:10095000F70120803180428016FF03C04B2D50E00C
:1009600002C04FEF5FEF842DB1010E94100E5C01B9
:10097000EE84FF841F7718C097012D5F3F4F3F879C
:100980002E87F70120803180428016FF03C04B2D57
:1009900050E002C04FEF5FEF842DB1010E94100EB6
:1009A0005C011068EE84FF8413FD1DC0802F90E071
:1009B000A816B906C0F4B60180E290E00E94070CC8
:1009C0000150F4CFF101849147FC8081FFEF2F1A91
:1009D0003F0A4F0AB60190E00E94070C0111015036
:1009E00021E0A21AB108A114B10461F7F5C0843660
:1009F00011F0893671F5F70117FF08C06081718128
:100A00008281938197012C5F3F4F09C06081718182
:100A1000072E000C880B990B97012E5F3F4F790131
:100A20001F76312E97FF0AC090958095709561953D
:100A30007F4F8F4F9F4F312F3068332E2AE030E0A9
:100A4000AE014F5F5F4F0E946C0B482E4C85441ADD
:100A50004AC0853729F41F7EA12E2AE030E025C048
:100A6000512F597FA52E8F36C1F018F4883579F0B3
:100A7000BDC0803719F0883721F0B8C0852F80615C
:100A8000A82EA4FE0DC09A2D9460A92E09C014FFB3
:100A90000AC0A52FA660AA2E06C028E030E005C037
:100AA00020E130E002C020E132E0F701A7FE08C0FB
:100AB0006081718182819381A7014C5F5F4F07C084
:100AC0006081718180E090E0A7014E5F5F4F7A0105
:100AD000AE014F5F5F4F0E946C0B482E5C85451A3C
:100AE0008A2D8F77382E36FE0DC0932D9E7FA92E2E
:100AF0004B1458F434FE0BC032FC09C0A32DAE7E5B
:100B0000AA2E05C0142DA32C03C0142D01C01B2D2B
:100B1000A4FE0EC0FE01E40DF11D8081803321F49E
:100B2000EA2DE97EAE2E08C0A2FE05C01E5F04C0FD
:100B30008A2D867809F01F5FA3FC11C0A0FE06C0B5
:100B4000101788F4040DB02EB11A0EC0101760F4FF
:100B5000B60180E290E00E94070C1F5FF7CF1017EC
:100B600018F4011B02C0B42C00E0A4FE10C0B601B2
:100B700080E390E00E94070CA2FE17C0A1FC03C016
:100B800088E790E002C088E590E0B6010CC08A2DAD
:100B9000867859F0A1FE02C08BE201C080E2A7FC7A
:100BA0008DE2B60190E00E94070C4B1438F4B601B8
:100BB00080E390E00E94070CBA94F7CF4A94E1E0FA
:100BC000F0E0EC0FFD1FE40DF11D8081B60190E017
:100BD0000E94070C4110F2CF002309F430CEB60179
:100BE00080E290E00E94070C0150F6CFF601878169
:100BF000908502C08FEF9FEF62960FB6F894DEBF2C
:100C00000FBECDBFDF91CF911F910F91FF90EF905D
:100C1000DF90CF90BF90AF909F908F907F906F901C
:080C20004F903F902F900895C2
:100C28004F925F926F927F928F929F92AF92BF92F4
:100C3800CF92DF92EF92FF920F931F93CF93DF93A0
:100C4800AAE1B1E05C9011964C90119780521596EC
:100C58009C91159717962C911797929F90011124A4
:100C68002F5F3F4F829FA001839F500D1124139641
:100C7800ED91FC9114975A018FEFA81AB80AE40F66
:100C8800F51F7490842D8770982E642C812C5FC07A
:100C9800662D852D0E94290F7501E80CF11C67014E
:100CA80081E0C81AD10810E041C080911D019091DF
:100CB8001E01FC01EE0DFF1D2491492D50E030E08E
:100CC800092C02C0220F331F0A94E2F7022F882052
:100CD800A1F0FC01EC0DFD1DE49188E090E0841B7F
:100CE800950BF0E002C0F595E7958A95E2F70E2F8F
:100CF800022B80912101C80ED11C809122018130E4
:100D080039F4EAE1F1E0618180810E94EC0E082B60
:100D1800CAE1D1E06981888191E0980F9883402FDA
:100D28000E94DE0E8F81E80EF11C1F5F171508F474
:100D3800BCCF80912201811107C0EAE1F1E040E0D7
:100D4800618180810E94DE0E88E0680E8394809124
:100D58002101881608F49CCF242D269526952695E2
:100D680030E08091200190E0840D911D0197AC0145
:100D780012F4495F5F4F5595479555954795559599
:100D880047952417350709F445C08FE3861508F4FD
:100D980041C0662D852D0E94290FA80CB11C81E049
:100DA800A81AB10800E029C0CAE1D1E0F980188189
:100DB8006F2D812F0E94EC0EEB81FC81EA0DFB1D4B
:100DC800449128E030E02919310950E002C05595D6
:100DD80047952A95E2F7482B9885913009F4482BD6
:100DE800CAE1D1E081E0810F88836F2D812F0E94B5
:100DF800DE0E8F81A80EB11C0F5F0715A8F2809137
:100E08002201811107C0EAE1F1E040E061818081BF
:100E18000E94DE0E852D870D642D8F5F0E94290F9D
:100E2800DF91CF911F910F91FF90EF90DF90CF90BE
:100E3800BF90AF909F908F907F906F905F904F90F2
:020E480008950B
:100E4A001F920F920FB60F9211242F933F934F9335
:100E5A005F936F937F938F939F93AF93BF93EF9318
:100E6A00FF9380914305909144050097D1F5E8E7F7
:100E7A00F0E02081318130932605209325052081D9
:100E8A0031812F3F334039F42FEF30E0309324057E
:100E9A00209323050CC02091780030917900369573
:100EAA00279536952795309324052093230540915D
:100EBA0016015091170160911801709119014D3274
:100ECA0051406105710568F420913305309134056C
:100EDA002431310530F024E630E0309324052093A4
:100EEA002305019709F040C080917800909179001C
:100EFA008F3F934069F48FEF90E09093420580937F
:100F0A00410588EC90E09093400580933F051EC010
:100F1A0060917800709179007695679576956795D6
:100F2A0070934205609341056956710980E090E02B
:100F3A000E94CA0B23E333E343EB5EE30E94770F7D
:100F4A000E94D80C7093400560933F0580913F053D
:100F5A00909140058739910520F088B1886088B959
:100F6A0003C088B1877F88B9809143059091440571
:100F7A00029799F580917800909179008F3F93407C
:100F8A0069F48FEF90E090933E0580933D0584E6E7
:100F9A0090E090934605809345051FC080917800A4
:100FAA0090917900969587959695879590933E05A9
:100FBA0080933D0544E6489F9001499F300D1124D6
:100FCA00A1E8B0E80E94CF0E880F892F881F990BDD
:100FDA0091959093460580934505FF91EF91BF91B6
:100FEA00AF919F918F917F916F915F914F913F91B7
:0C0FFA002F910F900FBE0F901F901895C4
:10100600CF93DF93DC01CB01FA0120E3228721870E
:101016002087278326832583248323832283218392
:101026002083BB234CF4B095A095909581959F4F56
:10103600AF4FBF4F31E008C030E006C09A5CAA4906
:10104600BB4321812F5F218381152AEC92072AE970
:10105600A2072BE3B20794F706C0915EA54FB540F1
:1010660022812F5F2283811521EE920725EFA207A9
:1010760025E0B20794F707C080589649A849B109F8
:1010860023812F5F2383803826E9920728E9A20768
:10109600B10594F707C080549244AF40B10924814A
:1010A6002F5F2483803422E492072FE0A207B10544
:1010B60094F707C0805A9648A140B10925812F5F51
:1010C6002583803A26E8920721E0A207B10594F726
:1010D60007C080519742A109B10926812F5F268357
:1010E600803127E29207A105B1059CF707C0885E0B
:1010F6009340A109B10927812F5F2783883E23E00A
:101106009207A105B1059CF707C084569109A1096C
:10111600B10920852F5F208784369105A105B10589
:10112600A4F706C00A97A109B10921852F5F218777
:101136008A309105A105B105ACF706C00197A10952
:10114600B10922852F5F2287181619061A061B0673
:10115600ACF320E001C02F5FDF01A20FB11D8C911F
:101166008033C9F3332331F02150DF01A20FB11DC3
:101176008DE28C934AE0421B30E00DC0832F90E055
:10118600EF01C80FD91F820F911DDF01A80FB91FEC
:101196008C9188833F5F431788F7E30FF11D108218
:0611A600DF91CF910895D6
:1011AC001F920F920FB60F921124EF92FF920F9392
:1011BC001F932F933F934F935F936F937F938F93D3
:1011CC009F93AF93BF93CF93EF93FF93C091C600C0
:1011DC00809148058F93809147058F938EE093E023
:1011EC00A0E0AF939F938F9384E191E09F938F93B3
:1011FC000E942B0D8DB79EB707960FB6F8949EBF25
:10120C000FBE8DBFCC3629F460E083E090E00E94E5
:10121C00FA0EC43631F580914705909148058A3015
:10122C00910540F08436910548F46894EE24E1F879
:10123C00F12C09C0EE24E394F12C05C00F2EF3E041
:10124C00EF2EF12CF02D00E010E008C0F801EC5E60
:10125C00FE4F80810E94430F0F5F1F4F0E151F051D
:10126C00ACF3C63619F488B1806488B9C33719F465
:10127C0088B18F7B88B9FF91EF91CF91BF91AF91DE
:10128C009F918F917F916F915F914F913F912F9192
:10129C001F910F91FF90EF900F900FBE0F901F902A
:0212AC00189593
:1012AE001F920F920FB60F9211240F931F932F932D
:1012BE003F934F935F936F937F938F939F93AF93D0
:1012CE00BF93EF93FF938091810086FF0FC08091B3
:1012DE00860090918700A0E0B0E08093000190938B
:1012EE000101A0930201B093030133C06091860007
:1012FE0070918700CB01A0E0B0E000910001109149
:10130E0001012091020130910301801B910BA20B70
:10131E00B30B880F991FAA1FBB1F880F991FAA1FF7
:10132E00BB1FBC01CD01660F771F881F991F660F6B
:10133E00771F881F991F2AE330E040E050E00E949B
:10134E00700D20931601309317014093180150939E
:10135E001901E1E8F0E0908180E489278083FF9114
:10136E00EF91BF91AF919F918F917F916F915F910F
:10137E004F913F912F911F910F910F900FBE0F9094
:04138E001F901895FF
:1013920010C00E94510F58F00E944A0F40F029F4E9
:1013A2005F3F29F00C945F0F51110C94590F0C946C
:1013B2007F0F0E944E0D68F39923B1F3552391F3E9
:1013C200951B550BBB27AA2762177307840738F0B2
:1013D2009F5F5F4F220F331F441FAA1FA9F335D00F
:1013E2000E2E3AF0E0E832D091505040E695001CC3
:1013F200CAF72BD0FE2F29D0660F771F881FBB1F7D
:10140200261737074807AB07B0E809F0BB0B802D5A
:10141200BF01FF2793585F4F3AF09E3F510578F086
:101422000C945F0F0C94590F5F3FE4F3983ED4F392
:10143200869577956795B795F7959F5FC9F7880F5A
:10144200911D9695879597F90895E1E0660F771FAC
:10145200881FBB1F621773078407BA0720F0621B3D
:0E146200730B840BBA0BEE1F88F7E09508950C
:101470001F920F920FB60F9211242F933F934F9309
:101480005F936F937F938F939F93AF93BF93EF93EC
:10149000FF9340913105509132054F5F5F4F50935C
:1014A0003205409331059A01369527953695279553
:1014B00036952795A5ECB0E20E94CF0E92958295C5
:1014C0008F7089279F70892768EE73E0869F90014F
:1014D000879F300D969F300D11244217530719F541
:1014E00060912705709128057695679580E090E0DA
:1014F0000E94CA0B20E030E040E752E40E947B0FDC
:101500000E94D80C70933A05609339051092280513
:10151000109227058091350590913605019690939C
:10152000360580933505FF91EF91BF91AF919F9163
:101530008F917F916F915F914F913F912F910F907C
:081540000FBE0F901F901895DB
:101548000FC00E944A0F38F00E94510F20F09523D7
:1015580011F00C945F0F0C947F0F11240C94590F09
:101568000E944E0D70F3959FC1F3950F50E0551FE3
:10157800629FF001729FBB27F00DB11D639FAA27E0
:10158800F00DB11DAA1F649F6627B00DA11D661F2F
:10159800829F2227B00DA11D621F739FB00DA11D50
:1015A800621F839FA00D611D221F749F3327A00D0A
:1015B800611D231F849F600D211D822F762F6A2FA6
:1015C80011249F5750409AF0F1F088234AF0EE0F0B
:1015D800FF1FBB1F661F771F881F91505040A9F738
:1015E8009E3F510580F00C945F0F0C94590F5F3F9C
:1015F800E4F3983ED4F3869577956795B795F79574
:10160800E7959F5FC1F7FE2B880F911D96958795EB
:0416180097F90895A1
:10161C000E94740E8EEA0E949D0E85ED0E949D0E16
:10162C0080EF0E949D0E88EA0E949D0E8FE30E941F
:10163C009D0E83ED0E949D0E80E00E949D0E8DE814
:10164C000E949D0E84E10E949D0E80E40E949D0EDE
:10165C0080E20E949D0E80E00E949D0E81EA0E9415
:10166C009D0E88EC0E949D0E8AED0E949D0E82E1DB
:10167C000E949D0E81E80E949D0E8FEF0E949D0E90
:10168C0089ED0E949D0E81EF0E949D0E8BED0E94B4
:10169C009D0E80E20E949D0E84EA0E949D0E86EAB9
:1016AC000E949D0E8EE20E949D0E8FEA0E949D0E5E
:1016BC0060E080E00E94290FEAE1F1E086EA828393
:0C16CC0017821682158211821082089588
:1016D800FA01AA27283051F1203181F1E8946F935B
:1016E8006E7F6E5F7F4F8F4F9F4FAF4FB1E03ED001
:1016F800B4E03CD0670F781F891F9A1FA11D680F9F
:10170800791F8A1F911DA11D6A0F711D811D911DD1
:10171800A11D20D009F468943F912AE0269F112446
:101728003019305D3193DEF6CF010895462F4770AA
:10173800405D4193B3E00FD0C9F7F6CF462F4F7005
:10174800405D4A3318F0495D31FD4052419302D063
:10175800A9F7EACFB4E0A695979587957795679509
:10176800BA95C9F700976105710508959B01AC0109
:101778000A2E06945795479537952795BA95C9F730
:0C178800620F731F841F951FA01D0895A1
:10179400E89409C097FB3EF4909580957095619507
:1017A4007F4F8F4F9F4F9923A9F0F92F96E9BB27BD
:1017B4009395F695879577956795B795F111F8CF39
:1017C400FAF4BB0F11F460FF1BC06F5F7F4F8F4FA4
:1017D4009F4F16C0882311F096E911C0772321F09A
:1017E4009EE8872F762F05C0662371F096E8862F32
:1017F40070E060E02AF09A95660F771F881FDAF789
:0A180400880F9695879597F90895CF
:10180E000F931F93CF93DF93FB01248121FD03C020
:10181E008FEF9FEF2CC022FF16C047815085258188
:10182E0036814217530744F4A081B1819D012F5F89
:10183E003F4F318320838C93278130852F5F3F4F1D
:10184E003087278314C08B01EC01FB010184F285E4
:10185E00E02D0995892BE1F6D80117968D919C9173
:10186E001897019618969C938E931797CE01DF9139
:08187E00CF911F910F91089515
:101886000F931F93CF93DF93CDB7DEB72C970FB689
:10189600F894DEBF0FBECDBF6115710581059105B8
:1018A60021F480E30E94140615C0611571058105B7
:1018B60020E8920779F08E010F5F1F4F2CE0F801A8
:1018C60011922A95E9F7A8010E940308B80180E859
:1018D6000E94D40D2C960FB6F894DEBF0FBECDBF76
:0A18E600DF91CF911F910F9108953B
:1018F0001F920F920FB60F9211242F933F934F9385
:101900005F936F937F938F939F93AF93BF93EF9367
:10191000FF9360913B0570913C056F5F7F4F709323
:101920003C0560933B0580E090E00E94FA0EFF9139
:10193000EF91BF91AF919F918F917F916F915F9147
:101940004F913F912F910F900FBE0F901F901895C0
:101950001F920F920FB60F9211242F933F934F9324
:101960005F936F937F938F939F93AF93BF93EF9307
:10197000FF9360913B0570913C0561507109709334
:101980003C0560933B0580E090E00E94FA0EFF91D9
:10199000EF91BF91AF919F918F917F916F915F91E7
:1019A0004F913F912F910F900FBE0F901F90189560
:1019B0000E94560D88F09F5798F0B92F9927B7517C
:1019C000B0F0E1F0660F771F881F991F1AF0BA95E3
:1019D000C9F714C0B13091F00E94580FB1E00895DA
:1019E0000C94580F672F782F8827B85F39F0B93FCC
:1019F000CCF3869577956795B395D9F73EF4909596
:0E1A00008095709561957F4F8F4F9F4F089591
:101A0E00CF9381E20E949D0E80E00E949D0E8FE793
:101A1E000E949D0E82E20E949D0E80E00E949D0E0D
:101A2E0087E00E949D0EC0E00BC080E1C89FB00110
:101A3E0011246D5D7E4F40E180E40E94920DCF5FD8
:081A4E00C03498F3CF91089514
:101A5600AFE0B0E0E1E3FDE00C94020E0E891F89D1
:101A660086E08D831A8309838FEF9FE79F838E839A
:101A76009E01255E3F4F488D598D6A8DCE01019698
:101A86000E94F003E885F985E00FF11F10822F967A
:061A9600E4E00C94390E9F
:101A9C0057FD9058440F551F59F05F3F71F0479513
:101AAC00880F97FB991F61F09F3F79F087950895F8
:101ABC00121613061406551FF2CF4695F1DF08C017
:101ACC00161617061806991FF1CF86957105610534
:041ADC0008940895CD
:101AE000A1E21A2EAA1BBB1BFD010DC0AA1FBB1F22
:101AF000EE1FFF1FA217B307E407F50720F0A21B94
:101B0000B30BE40BF50B661F771F881F991F1A9400
:101B100069F760957095809590959B01AC01BD012A
:041B2000CF01089554
:101B24000F931F93CF93DF93C82F8B01D42F0E9461
:101B34001F0F88E70E94080F8C2F0E94080FC0E037
:101B440007C0F801EC0FF11D80810E94080FCF5FE0
:101B5400CD17B8F30E943B0FDF91CF911F910F91E6
:021B64000895E2
:101B66000F934423E4F02034D0F40230C0F4EAE1C9
:101B7600F1E0748363834583268330E02150310985
:101B8600C90199230CF407969595879595958795A0
:101B960095958795EAE1F1E08F5F878300870F913E
:021BA6000895A0
:101BA800CF92DF92EF926B01E82E10C0EAE1F1E0EC
:101BB8009081258130E0290F311D2038310564F4EA
:101BC8009FEFC91AD90AE90A0E941406F6018491FE
:101BD800E7FC80818111EACFEF90DF90CF900895E4
:101BE8002F923F924F925F926F927F928F929F9225
:101BF800AF92BF92CF92DF92EF92FF920F931F9313
:101C0800CF93DF93CDB7DEB7CA1BDB0B0FB6F894C3
:081C1800DEBF0FBECDBF099431
:101C2000CF92DF92EF926B01E82EA82FCB014115E6
:101C3000510531F48C199D09EF90DF90CF900895F4
:101C4000FC012491A7FD20812223A1F30196A11D6F
:061C500041505109ECCFE8
:101C56002A88398848885F846E847D848C849B8436
:101C6600AA84B984C884DF80EE80FD800C811B8144
:101C7600AA81B981CE0FD11D0FB6F894DEBF0FBE73
:061C8600CDBFED01089541
:101C8C001F920F920FB60F9211248F939F938091F6
:101C9C002705909128050196909328058093270598
:0E1CAC009F918F910F900FBE0F901F90189573
:101CBA001F93CF93DF93182FD0E00BC0412F6D2FC6
:101CCA008C2F0E94DE0ECF5F01C0C0E0CC23B4F798
:0E1CDA00D85FD034D0F3DF91CF911F910895E1
:101CE80087B1806187B987B1806287B988B180611F
:101CF80088B988B1806288B91092B90088E4809365
:0A1D0800B80084E08093BC00089549
:101D1200AA1BBB1B51E107C0AA1FBB1FA617B7070F
:101D220010F0A61BB70B881F991F5A95A9F780952B
:081D32009095BC01CD0108955C
:101D3A00CF93DF931F92CDB7DEB7898341E0BE010F
:101D4A006F5F7F4F80E00E94920D0F90DF91CF91DD
:021D5A000895EA
:101D5C00092E0394000C11F4882352F0BB0F40F4AD
:101D6C00BF2B11F460FF04C06F5F7F4F8F4F9F4FED
:021D7C000895C8
:101D7E0080911C01873A21F486EA80931C0103C0EE
:101D8E0087EA80931C0180911C010E949D0E08958C
:101D9E00A29FB001B39FC001A39F700D811D11249E
:0E1DAE00911DB29F700D811D1124911D08958D
:101DBC00669566956695E82FF0E080E8689FE00DE3
:0C1DCC00F11D1124ED5DFE4F40830895D1
:101DD800669566956695E82FF0E080E8689FE00DC7
:0C1DE800F11D1124ED5DFE4F8081089577
:101DF400262FF999FECF1FBA92BD81BD20BD0FB623
:0C1E0400F894FA9AF99A0FBE019608951E
:101E10008093BB0084E88093BC008091BC00882341
:081E2000E4F70E94730F08951E
:101E28009093C5008093C40088E98093C1008EE038
:061E38008093C200089532
:101E3E0084EA8093BC008091BC008823E4F70E9462
:041E4E00730F089571
:101E5200CF93C62F0E94650F8C2F0E946A0FCF91DD
:021E62000895E1
:101E6400CB01F999FECF92BD81BDF89A992780B52F
:021E74000895CF
:101E760085ED8093BC008091BC0084FDFCCF089565
:0E1E86009091C00095FFFCCF8093C600089598
:0E1E940000240A94161617061806090608956B
:0E1EA20000240A94121613061406050608956D
:0E1EB000E894BB2766277727CB0197F90895A2
:0C1EBE0097F99F6780E870E060E00895ED
:0A1ECA00882314F080931A01089594
:0A1ED400803410F480931B01089580
:081EDE0080E00E945D0E0895F2
:081EE6008091B900887F089586
:081EEE000E94C9090C94AE0E1C
:081EF6000E94A40A0C94AE0E38
:061EFE009FEF80EC089547
:041F04000C94000039
:021F0800410096
:00000001FF
